{
  "address": "0x2b912c55769B50ca71834774f808143513769969",
  "abi": [
    {
      "inputs": [
        {
          "internalType": "contract IVerifier",
          "name": "_verifier",
          "type": "address"
        },
        {
          "internalType": "address",
          "name": "_hasher",
          "type": "address"
        },
        {
          "internalType": "uint256",
          "name": "_denomination",
          "type": "uint256"
        },
        {
          "internalType": "uint32",
          "name": "_merkleTreeHeight",
          "type": "uint32"
        },
        {
          "internalType": "contract ZKATM_Token",
          "name": "_zkatmToken",
          "type": "address"
        }
      ],
      "stateMutability": "nonpayable",
      "type": "constructor"
    },
    {
      "inputs": [],
      "name": "InsufficientBalance",
      "type": "error"
    },
    {
      "anonymous": false,
      "inputs": [
        {
          "indexed": false,
          "internalType": "address",
          "name": "from",
          "type": "address"
        },
        {
          "indexed": false,
          "internalType": "uint32",
          "name": "leafIndex",
          "type": "uint32"
        },
        {
          "indexed": false,
          "internalType": "uint256",
          "name": "value",
          "type": "uint256"
        },
        {
          "indexed": false,
          "internalType": "uint256",
          "name": "timestamp",
          "type": "uint256"
        }
      ],
      "name": "Deposit",
      "type": "event"
    },
    {
      "anonymous": false,
      "inputs": [
        {
          "indexed": false,
          "internalType": "address",
          "name": "from",
          "type": "address"
        },
        {
          "indexed": false,
          "internalType": "address",
          "name": "to",
          "type": "address"
        },
        {
          "indexed": false,
          "internalType": "uint256",
          "name": "value",
          "type": "uint256"
        },
        {
          "indexed": false,
          "internalType": "uint256",
          "name": "timestamp",
          "type": "uint256"
        }
      ],
      "name": "Transfer",
      "type": "event"
    },
    {
      "anonymous": false,
      "inputs": [
        {
          "indexed": false,
          "internalType": "address",
          "name": "to",
          "type": "address"
        },
        {
          "indexed": false,
          "internalType": "bytes32",
          "name": "_nullifierHash",
          "type": "bytes32"
        },
        {
          "indexed": false,
          "internalType": "uint256",
          "name": "value",
          "type": "uint256"
        }
      ],
      "name": "Withdraw",
      "type": "event"
    },
    {
      "inputs": [],
      "name": "FIELD_SIZE",
      "outputs": [
        {
          "internalType": "uint256",
          "name": "",
          "type": "uint256"
        }
      ],
      "stateMutability": "view",
      "type": "function"
    },
    {
      "inputs": [],
      "name": "ROOT_HISTORY_SIZE",
      "outputs": [
        {
          "internalType": "uint32",
          "name": "",
          "type": "uint32"
        }
      ],
      "stateMutability": "view",
      "type": "function"
    },
    {
      "inputs": [],
      "name": "ZERO_VALUE",
      "outputs": [
        {
          "internalType": "uint256",
          "name": "",
          "type": "uint256"
        }
      ],
      "stateMutability": "view",
      "type": "function"
    },
    {
      "inputs": [
        {
          "internalType": "address",
          "name": "_account",
          "type": "address"
        }
      ],
      "name": "balance",
      "outputs": [
        {
          "internalType": "uint256",
          "name": "_balance",
          "type": "uint256"
        }
      ],
      "stateMutability": "view",
      "type": "function"
    },
    {
      "inputs": [],
      "name": "balanceTotalATM",
      "outputs": [
        {
          "internalType": "uint256",
          "name": "",
          "type": "uint256"
        }
      ],
      "stateMutability": "view",
      "type": "function"
    },
    {
      "inputs": [
        {
          "internalType": "bytes32",
          "name": "",
          "type": "bytes32"
        }
      ],
      "name": "commitments",
      "outputs": [
        {
          "internalType": "bool",
          "name": "",
          "type": "bool"
        }
      ],
      "stateMutability": "view",
      "type": "function"
    },
    {
      "inputs": [],
      "name": "currentRootIndex",
      "outputs": [
        {
          "internalType": "uint32",
          "name": "",
          "type": "uint32"
        }
      ],
      "stateMutability": "view",
      "type": "function"
    },
    {
      "inputs": [],
      "name": "denomination",
      "outputs": [
        {
          "internalType": "uint256",
          "name": "",
          "type": "uint256"
        }
      ],
      "stateMutability": "view",
      "type": "function"
    },
    {
      "inputs": [
        {
          "internalType": "bytes32",
          "name": "commitment",
          "type": "bytes32"
        },
        {
          "internalType": "uint256",
          "name": "_amount",
          "type": "uint256"
        }
      ],
      "name": "deposit",
      "outputs": [],
      "stateMutability": "nonpayable",
      "type": "function"
    },
    {
      "inputs": [
        {
          "internalType": "uint256",
          "name": "",
          "type": "uint256"
        }
      ],
      "name": "filledSubtrees",
      "outputs": [
        {
          "internalType": "bytes32",
          "name": "",
          "type": "bytes32"
        }
      ],
      "stateMutability": "view",
      "type": "function"
    },
    {
      "inputs": [],
      "name": "generateCommitment",
      "outputs": [
        {
          "internalType": "bytes32",
          "name": "nullifier",
          "type": "bytes32"
        },
        {
          "internalType": "bytes32",
          "name": "secret",
          "type": "bytes32"
        },
        {
          "internalType": "bytes32",
          "name": "commitment",
          "type": "bytes32"
        },
        {
          "internalType": "bytes32",
          "name": "nullifierHash",
          "type": "bytes32"
        }
      ],
      "stateMutability": "view",
      "type": "function"
    },
    {
      "inputs": [],
      "name": "getLastRoot",
      "outputs": [
        {
          "internalType": "bytes32",
          "name": "",
          "type": "bytes32"
        }
      ],
      "stateMutability": "view",
      "type": "function"
    },
    {
      "inputs": [],
      "name": "greeting",
      "outputs": [
        {
          "internalType": "string",
          "name": "",
          "type": "string"
        }
      ],
      "stateMutability": "view",
      "type": "function"
    },
    {
      "inputs": [
        {
          "internalType": "bytes32",
          "name": "_left",
          "type": "bytes32"
        },
        {
          "internalType": "bytes32",
          "name": "_right",
          "type": "bytes32"
        }
      ],
      "name": "hashLeftRight",
      "outputs": [
        {
          "internalType": "bytes32",
          "name": "",
          "type": "bytes32"
        }
      ],
      "stateMutability": "view",
      "type": "function"
    },
    {
      "inputs": [],
      "name": "hasher",
      "outputs": [
        {
          "internalType": "contract Hasher",
          "name": "",
          "type": "address"
        }
      ],
      "stateMutability": "view",
      "type": "function"
    },
    {
      "inputs": [],
      "name": "initializeBalance",
      "outputs": [],
      "stateMutability": "nonpayable",
      "type": "function"
    },
    {
      "inputs": [
        {
          "internalType": "address",
          "name": "_account",
          "type": "address"
        }
      ],
      "name": "initialized",
      "outputs": [
        {
          "internalType": "bool",
          "name": "",
          "type": "bool"
        }
      ],
      "stateMutability": "view",
      "type": "function"
    },
    {
      "inputs": [
        {
          "internalType": "bytes32",
          "name": "_root",
          "type": "bytes32"
        }
      ],
      "name": "isKnownRoot",
      "outputs": [
        {
          "internalType": "bool",
          "name": "",
          "type": "bool"
        }
      ],
      "stateMutability": "view",
      "type": "function"
    },
    {
      "inputs": [
        {
          "internalType": "bytes32",
          "name": "_nullifierHash",
          "type": "bytes32"
        }
      ],
      "name": "isSpent",
      "outputs": [
        {
          "internalType": "bool",
          "name": "",
          "type": "bool"
        }
      ],
      "stateMutability": "view",
      "type": "function"
    },
    {
      "inputs": [],
      "name": "levels",
      "outputs": [
        {
          "internalType": "uint32",
          "name": "",
          "type": "uint32"
        }
      ],
      "stateMutability": "view",
      "type": "function"
    },
    {
      "inputs": [],
      "name": "nextIndex",
      "outputs": [
        {
          "internalType": "uint32",
          "name": "",
          "type": "uint32"
        }
      ],
      "stateMutability": "view",
      "type": "function"
    },
    {
      "inputs": [
        {
          "internalType": "bytes32",
          "name": "",
          "type": "bytes32"
        }
      ],
      "name": "nullifierHashes",
      "outputs": [
        {
          "internalType": "bool",
          "name": "",
          "type": "bool"
        }
      ],
      "stateMutability": "view",
      "type": "function"
    },
    {
      "inputs": [
        {
          "internalType": "uint256",
          "name": "",
          "type": "uint256"
        }
      ],
      "name": "roots",
      "outputs": [
        {
          "internalType": "bytes32",
          "name": "",
          "type": "bytes32"
        }
      ],
      "stateMutability": "view",
      "type": "function"
    },
    {
      "inputs": [
        {
          "internalType": "address",
          "name": "_receiver",
          "type": "address"
        },
        {
          "internalType": "uint256",
          "name": "_amount",
          "type": "uint256"
        },
        {
          "components": [
            {
              "internalType": "uint256[2]",
              "name": "a",
              "type": "uint256[2]"
            },
            {
              "internalType": "uint256[2][2]",
              "name": "b",
              "type": "uint256[2][2]"
            },
            {
              "internalType": "uint256[2]",
              "name": "c",
              "type": "uint256[2]"
            }
          ],
          "internalType": "struct Proof",
          "name": "_proof",
          "type": "tuple"
        },
        {
          "internalType": "bytes32",
          "name": "_root",
          "type": "bytes32"
        },
        {
          "internalType": "bytes32",
          "name": "_nullifierHash",
          "type": "bytes32"
        }
      ],
      "name": "transfer",
      "outputs": [],
      "stateMutability": "nonpayable",
      "type": "function"
    },
    {
      "inputs": [],
      "name": "verifier",
      "outputs": [
        {
          "internalType": "contract IVerifier",
          "name": "",
          "type": "address"
        }
      ],
      "stateMutability": "view",
      "type": "function"
    },
    {
      "inputs": [
        {
          "internalType": "uint256",
          "name": "_amount",
          "type": "uint256"
        },
        {
          "components": [
            {
              "internalType": "uint256[2]",
              "name": "a",
              "type": "uint256[2]"
            },
            {
              "internalType": "uint256[2][2]",
              "name": "b",
              "type": "uint256[2][2]"
            },
            {
              "internalType": "uint256[2]",
              "name": "c",
              "type": "uint256[2]"
            }
          ],
          "internalType": "struct Proof",
          "name": "_proof",
          "type": "tuple"
        },
        {
          "internalType": "bytes32",
          "name": "_root",
          "type": "bytes32"
        },
        {
          "internalType": "bytes32",
          "name": "_nullifierHash",
          "type": "bytes32"
        }
      ],
      "name": "withdraw",
      "outputs": [],
      "stateMutability": "nonpayable",
      "type": "function"
    },
    {
      "inputs": [
        {
          "internalType": "uint256",
          "name": "",
          "type": "uint256"
        }
      ],
      "name": "zeros",
      "outputs": [
        {
          "internalType": "bytes32",
          "name": "",
          "type": "bytes32"
        }
      ],
      "stateMutability": "view",
      "type": "function"
    },
    {
      "inputs": [],
      "name": "zkatmToken",
      "outputs": [
        {
          "internalType": "contract ZKATM_Token",
          "name": "",
          "type": "address"
        }
      ],
      "stateMutability": "view",
      "type": "function"
    }
  ],
  "transactionHash": "0x7a5985f16f804b2cf5b93ab43e9a0bd6994d38d9d4b8a9b42ad9a7c9a168c04c",
  "args": [
    "0x0918fe077e800b24E1D64c2FE9bb6a12E0255CA9",
    "0xCc735e52E393f125cAFc4E0aEbD80AEd81eA4B41",
    "5",
    "5",
    "0xDD8fA77500F94b2286AbE41c81B4a08EdD0429B9"
  ],
  "numDeployments": 10,
  "solcInputHash": "6739f02d6c38ea8787642d43aa69a801",
  "bytecode": "0x600380546001600160401b0319169055610140604052602560e081815290620025ed61010039600d90620000349082620004a0565b503480156200004257600080fd5b506040516200261238038062002612833981016040819052620000659162000585565b818460008263ffffffff1611620000c35760405162461bcd60e51b815260206004820152601f60248201527f5f6c6576656c73206465626520736572206d61796f7220717565206365726f0060448201526064015b60405180910390fd5b60068263ffffffff16106200011b5760405162461bcd60e51b815260206004820152601c60248201527f5f6c6576656c73206465626520736572206d656e6f72207175652036000000006044820152606401620000ba565b63ffffffff8216608052600080546001600160a01b0319166001600160a01b0383161781556002805460018181019092557f1d27baa01438d26e8a52f6914806cf329e273630404a9731e3035c38554973dd600080516020620025ad8339815191529091018190558154808301835592829052600080516020620025cd8339815191529092018290555b8363ffffffff168163ffffffff1610156200021e57620001c6828062000272565b600280546001818101909255600080516020620025ad8339815191520182905580548082018255600091909152600080516020620025cd83398151915201819055915080620002158162000601565b915050620001a5565b506200022b818062000272565b6004600001555050506001600160a01b0394851660c052600080549486166001600160a01b031995861617905560a092909252506008805491909316911617905562000680565b60007f30644e72e131a029b85045b68181585d2833e84879b9709143e1f593f00000018310620002ef5760405162461bcd60e51b815260206004820152602160248201527f5f6c65667420646562652065737461722064656e74726f2064656c2063616d706044820152606f60f81b6064820152608401620000ba565b7f30644e72e131a029b85045b68181585d2833e84879b9709143e1f593f000000182106200036b5760405162461bcd60e51b815260206004820152602260248201527f5f726967687420646562652065737461722064656e74726f2064656c2063616d604482015261706f60f01b6064820152608401620000ba565b60408051808201825284815260208101849052600054915163014cf2b360e51b815290916001600160a01b03169063299e566090620003af90849060040162000633565b602060405180830381865afa158015620003cd573d6000803e3d6000fd5b505050506040513d601f19601f82011682018060405250810190620003f3919062000666565b949350505050565b634e487b7160e01b600052604160045260246000fd5b600181811c908216806200042657607f821691505b6020821081036200044757634e487b7160e01b600052602260045260246000fd5b50919050565b601f8211156200049b57600081815260208120601f850160051c81016020861015620004765750805b601f850160051c820191505b81811015620004975782815560010162000482565b5050505b505050565b81516001600160401b03811115620004bc57620004bc620003fb565b620004d481620004cd845462000411565b846200044d565b602080601f8311600181146200050c5760008415620004f35750858301515b600019600386901b1c1916600185901b17855562000497565b600085815260208120601f198616915b828110156200053d578886015182559484019460019091019084016200051c565b50858210156200055c5787850151600019600388901b60f8161c191681555b5050505050600190811b01905550565b6001600160a01b03811681146200058257600080fd5b50565b600080600080600060a086880312156200059e57600080fd5b8551620005ab816200056c565b6020870151909550620005be816200056c565b60408701516060880151919550935063ffffffff81168114620005e057600080fd5b6080870151909250620005f3816200056c565b809150509295509295909350565b600063ffffffff8083168181036200062957634e487b7160e01b600052601160045260246000fd5b6001019392505050565b60408101818360005b60028110156200065d5781518352602092830192909101906001016200063c565b50505092915050565b6000602082840312156200067957600080fd5b5051919050565b60805160a05160c051611ecc620006e16000396000818161024601528181610cba015261121801526000818161031d015281816105d801528181610bd701526111350152600081816102a30152818161156301526116480152611ecc6000f3fe608060405234801561001057600080fd5b50600436106101c45760003560e01c8063ba70f757116100f9578063e829558811610097578063ef690cc011610071578063ef690cc014610473578063f178e47c14610488578063f6939c171461049b578063fc7e9c6f146104a457600080fd5b8063e829558814610426578063ec73295914610439578063ed33639f1461046057600080fd5b8063cbca47db116100d3578063cbca47db146103b8578063cd87a3b4146103db578063e3d670d7146103e3578063e5285dcc1461040357600080fd5b8063ba70f7571461038a578063c2b40ae414610392578063c6488067146103a557600080fd5b80635b26f632116101665780638bca6d16116101405780638bca6d161461031857806390eeb02b1461033f578063926d4b7f1461034f578063b8fe2a821461036257600080fd5b80635b26f632146102da5780636d9833e3146102e2578063839df945146102f557600080fd5b80632b7ac3f3116101a25780632b7ac3f31461024157806338bf282e14610268578063414a37ba146102895780634ecf518b1461029e57600080fd5b806305399e0d146101c957806317cc915c146101f95780631de26e161461022c575b600080fd5b6008546101dc906001600160a01b031681565b6040516001600160a01b0390911681526020015b60405180910390f35b61021c6102073660046117b0565b600a6020526000908152604090205460ff1681565b60405190151581526020016101f0565b61023f61023a3660046117c9565b6104bc565b005b6101dc7f000000000000000000000000000000000000000000000000000000000000000081565b61027b6102763660046117c9565b610812565b6040519081526020016101f0565b61027b600080516020611e7783398151915281565b6102c57f000000000000000000000000000000000000000000000000000000000000000081565b60405163ffffffff90911681526020016101f0565b61023f610970565b61021c6102f03660046117b0565b610b53565b61021c6103033660046117b0565b600c6020526000908152604090205460ff1681565b61027b7f000000000000000000000000000000000000000000000000000000000000000081565b6003546102c59063ffffffff1681565b61023f61035d366004611804565b610bd5565b61036a610f11565b6040805194855260208501939093529183015260608201526080016101f0565b61027b6110f6565b61027b6103a03660046117b0565b61111c565b61023f6103b336600461185f565b611133565b61021c6103c63660046118b1565b600b6020526000908152604090205460ff1681565b6102c5600381565b61027b6103f13660046118b1565b60096020526000908152604090205481565b61021c6104113660046117b0565b6000908152600a602052604090205460ff1690565b61027b6104343660046117b0565b61148b565b61027b7f1d27baa01438d26e8a52f6914806cf329e273630404a9731e3035c38554973dd81565b6000546101dc906001600160a01b031681565b61047b6114ac565b6040516101f091906118d3565b61027b6104963660046117b0565b61153a565b61027b60075481565b6003546102c590640100000000900463ffffffff1681565b6000828152600c602052604090205460ff16156105205760405162461bcd60e51b815260206004820181905260248201527f456c20636f6d70726f6d69736f20796120736520686120696e7365727461646f60448201526064015b60405180910390fd5b3360009081526009602052604090205481111561055057604051631e9acf1760e31b815260040160405180910390fd5b600860009054906101000a90046001600160a01b03166001600160a01b031663313ce5676040518163ffffffff1660e01b8152600401602060405180830381865afa1580156105a3573d6000803e3d6000fd5b505050506040513d601f19601f820116820180604052508101906105c79190611921565b6105d290600a611b30565b6105fc907f0000000000000000000000000000000000000000000000000000000000000000611b3f565b81146106585760405162461bcd60e51b815260206004820152602560248201527f4c612063616e7469646164206465706f736974616461206e6f2065732061646d604482015264697469646160d81b6064820152608401610517565b6008546040516323b872dd60e01b8152336004820152306024820152604481018390526000916001600160a01b0316906323b872dd906064016020604051808303816000875af11580156106b0573d6000803e3d6000fd5b505050506040513d601f19601f820116820180604052508101906106d49190611b56565b9050806106f35760405162461bcd60e51b815260040161051790611b78565b6008546040516370a0823160e01b81523360048201526001600160a01b03909116906370a0823190602401602060405180830381865afa15801561073b573d6000803e3d6000fd5b505050506040513d601f19601f8201168201806040525081019061075f9190611bbd565b3360009081526009602052604081209190915561077b8461154a565b6000858152600c60205260408120805460ff191660011790556007805492935085929091906107ab908490611bd6565b90915550503360008181526009602090815260409182902054825193845263ffffffff85169184019190915282820152426060830152517f998ee7ca3edf2df3955313b2583cc7f36e1ecfd3c5e2ef9c442d216b42d421d29181900360800190a150505050565b6000600080516020611e77833981519152831061087b5760405162461bcd60e51b815260206004820152602160248201527f5f6c65667420646562652065737461722064656e74726f2064656c2063616d706044820152606f60f81b6064820152608401610517565b600080516020611e7783398151915282106108e35760405162461bcd60e51b815260206004820152602260248201527f5f726967687420646562652065737461722064656e74726f2064656c2063616d604482015261706f60f01b6064820152608401610517565b60408051808201825284815260208101849052600054915163014cf2b360e51b815290916001600160a01b03169063299e566090610925908490600401611be9565b602060405180830381865afa158015610942573d6000803e3d6000fd5b505050506040513d601f19601f820116820180604052508101906109669190611bbd565b9150505b92915050565b336000908152600b602052604090205460ff16156109d05760405162461bcd60e51b815260206004820181905260248201527f456c2073616c646f207961206861207369646f20696e696369616c697a61646f6044820152606401610517565b6008546040805163313ce56760e01b815290516000926001600160a01b03169163313ce5679160048083019260209291908290030181865afa158015610a1a573d6000803e3d6000fd5b505050506040513d601f19601f82011682018060405250810190610a3e9190611921565b610a4990600a611b30565b610a54906032611b3f565b6008546040516340c10f1960e01b8152336004820152602481018390529192506001600160a01b0316906340c10f1990604401600060405180830381600087803b158015610aa157600080fd5b505af1158015610ab5573d6000803e3d6000fd5b5050336000818152600b602052604090819020805460ff1916600117905560085490516370a0823160e01b815260048101929092526001600160a01b031692506370a082319150602401602060405180830381865afa158015610b1c573d6000803e3d6000fd5b505050506040513d601f19601f82011682018060405250810190610b409190611bbd565b3360009081526009602052604090205550565b6000818103610b6457506000919050565b60035463ffffffff165b60048163ffffffff1660038110610b8757610b87611c1a565b01548303610b985750600192915050565b8063ffffffff16600003610baa575060035b80610bb481611c30565b60035490925063ffffffff908116908316039050610b6e5750600092915050565b7f00000000000000000000000000000000000000000000000000000000000000008414610c145760405162461bcd60e51b815260040161051790611c50565b6000818152600a602052604090205460ff1615610c6c5760405162461bcd60e51b81526020600482015260166024820152754c61206e6f746120796120667565206761737461646160501b6044820152606401610517565b610c7582610b53565b610c915760405162461bcd60e51b815260040161051790611c94565b604080518082018252838152602081018390528151637ae4eb4f60e11b81526001600160a01b037f0000000000000000000000000000000000000000000000000000000000000000169263f5c9d69e92610cf792889283019160c0840191600401611cd8565b6020604051808303816000875af1158015610d16573d6000803e3d6000fd5b505050506040513d601f19601f82011682018060405250810190610d3a9190611b56565b610d865760405162461bcd60e51b815260206004820152601d60248201527f50727565626120706172612072657469726172206e6f2076616c6964610000006044820152606401610517565b6000818152600a6020526040808220805460ff19166001179055600854905163a9059cbb60e01b8152336004820152602481018790526001600160a01b039091169063a9059cbb906044016020604051808303816000875af1158015610df0573d6000803e3d6000fd5b505050506040513d601f19601f82011682018060405250810190610e149190611b56565b905080610e335760405162461bcd60e51b815260040161051790611b78565b6008546040516370a0823160e01b81523360048201526001600160a01b03909116906370a0823190602401602060405180830381865afa158015610e7b573d6000803e3d6000fd5b505050506040513d601f19601f82011682018060405250810190610e9f9190611bbd565b3360009081526009602052604081209190915560078054879290610ec4908490611d46565b909155505060408051338152602081018490529081018690527fc3ded2be7db21b1af963f267d27750e4a15f174547d88b886b9bda43e2c6fa329060600160405180910390a15050505050565b600080600080600080516020611e778339815191524233604051602001610f5492919091825260601b6bffffffffffffffffffffffff1916602082015260340190565b6040516020818303038152906040528051906020012060001c610f779190611d6f565b60001b9350600080516020611e77833981519152844233604051602001610fc393929190928352602083019190915260601b6bffffffffffffffffffffffff1916604082015260540190565b6040516020818303038152906040528051906020012060001c610fe69190611d6f565b60005460408051808201825287815260208101849052905163014cf2b360e51b81529295506001600160a01b039091169163299e56609161102991600401611be9565b602060405180830381865afa158015611046573d6000803e3d6000fd5b505050506040513d601f19601f8201168201806040525081019061106a9190611bbd565b60005460408051808201825287815260208101889052905163014cf2b360e51b81529294506001600160a01b039091169163299e5660916110ad91600401611be9565b602060405180830381865afa1580156110ca573d6000803e3d6000fd5b505050506040513d601f19601f820116820180604052508101906110ee9190611bbd565b905090919293565b6003805460009160049163ffffffff1690811061111557611115611c1a565b0154905090565b6004816003811061112c57600080fd5b0154905081565b7f000000000000000000000000000000000000000000000000000000000000000084146111725760405162461bcd60e51b815260040161051790611c50565b6000818152600a602052604090205460ff16156111ca5760405162461bcd60e51b81526020600482015260166024820152754c61206e6f746120796120667565206761737461646160501b6044820152606401610517565b6111d382610b53565b6111ef5760405162461bcd60e51b815260040161051790611c94565b604080518082018252838152602081018390528151637ae4eb4f60e11b81526001600160a01b037f0000000000000000000000000000000000000000000000000000000000000000169263f5c9d69e9261125592889283019160c0840191600401611cd8565b6020604051808303816000875af1158015611274573d6000803e3d6000fd5b505050506040513d601f19601f820116820180604052508101906112989190611b56565b6112e45760405162461bcd60e51b815260206004820152601d60248201527f50727565626120706172612072657469726172206e6f2076616c6964610000006044820152606401610517565b6000818152600a6020526040808220805460ff19166001179055600854905163a9059cbb60e01b81526001600160a01b038881166004830152602482018890529091169063a9059cbb906044016020604051808303816000875af1158015611350573d6000803e3d6000fd5b505050506040513d601f19601f820116820180604052508101906113749190611b56565b9050806113935760405162461bcd60e51b815260040161051790611b78565b6008546040516370a0823160e01b81526001600160a01b038881166004830152909116906370a0823190602401602060405180830381865afa1580156113dd573d6000803e3d6000fd5b505050506040513d601f19601f820116820180604052508101906114019190611bbd565b6001600160a01b0387166000908152600960205260408120919091556007805487929061142f908490611d46565b9091555050604080513381526001600160a01b03881660208201529081018690524260608201527f9ed053bb818ff08b8353cd46f78db1f0799f31c9e4458fdb425c10eccd2efc449060800160405180910390a1505050505050565b6002818154811061149b57600080fd5b600091825260209091200154905081565b600d80546114b990611d83565b80601f01602080910402602001604051908101604052809291908181526020018280546114e590611d83565b80156115325780601f1061150757610100808354040283529160200191611532565b820191906000526020600020905b81548152906001019060200180831161151557829003601f168201915b505050505081565b6001818154811061149b57600080fd5b600354600090640100000000900463ffffffff166115897f00000000000000000000000000000000000000000000000000000000000000006002611db7565b63ffffffff168163ffffffff16036115fb5760405162461bcd60e51b815260206004820152602f60248201527f4172626f6c204d65726b6c65206c6c656e6f2e204e6f2073652070756564656e60448201526e1030b3b932b3b0b9103437b530b99760891b6064820152608401610517565b6001600360048282829054906101000a900463ffffffff1661161d9190611dcc565b92506101000a81548163ffffffff021916908363ffffffff160217905550600083905060008060005b7f000000000000000000000000000000000000000000000000000000000000000063ffffffff168163ffffffff16101561173b57611685600286611df0565b63ffffffff166000036116e65783925060028163ffffffff16815481106116ae576116ae611c1a565b906000526020600020015491508360018263ffffffff16815481106116d5576116d5611c1a565b600091825260209091200155611710565b60018163ffffffff16815481106116ff576116ff611c1a565b906000526020600020015492508391505b61171a8383610812565b9350611727600286611e13565b94508061173381611e36565b915050611646565b50600380546117519063ffffffff166001611dcc565b61175b9190611df0565b6003805463ffffffff191663ffffffff9290921691821781558491600491811061178757611787611c1a565b01556003546117a690600190640100000000900463ffffffff16611e59565b9695505050505050565b6000602082840312156117c257600080fd5b5035919050565b600080604083850312156117dc57600080fd5b50508035926020909101359150565b600061010082840312156117fe57600080fd5b50919050565b600080600080610160858703121561181b57600080fd5b8435935061182c86602087016117eb565b939693955050505061012082013591610140013590565b80356001600160a01b038116811461185a57600080fd5b919050565b6000806000806000610180868803121561187857600080fd5b61188186611843565b94506020860135935061189787604088016117eb565b949793965093946101408101359450610160013592915050565b6000602082840312156118c357600080fd5b6118cc82611843565b9392505050565b600060208083528351808285015260005b81811015611900578581018301518582016040015282016118e4565b506000604082860101526040601f19601f8301168501019250505092915050565b60006020828403121561193357600080fd5b815160ff811681146118cc57600080fd5b634e487b7160e01b600052601160045260246000fd5b600181815b8085111561199557816000190482111561197b5761197b611944565b8085161561198857918102915b93841c939080029061195f565b509250929050565b600181815b80851115611995578163ffffffff048211156119c0576119c0611944565b808516156119cd57918102915b93841c93908002906119a2565b6000826119e95750600161096a565b816119f65750600061096a565b8160018114611a0c5760028114611a1657611a32565b600191505061096a565b60ff841115611a2757611a27611944565b50506001821b61096a565b5060208310610133831016604e8410600b8410161715611a55575081810a61096a565b611a5f838361195a565b8060001904821115611a7357611a73611944565b029392505050565b600082611a8a5750600161096a565b81611a975750600061096a565b8160018114611a0c5760028103611ad95760ff841115611ab957611ab9611944565b6001841b915063ffffffff821115611ad357611ad3611944565b5061096a565b5060208310610133831016604e8410600b8410161715611b10575081810a63ffffffff811115611b0b57611b0b611944565b61096a565b611b1a838361199d565b8063ffffffff04821115611a7357611a73611944565b60006118cc60ff8416836119da565b808202811582820484141761096a5761096a611944565b600060208284031215611b6857600080fd5b815180151581146118cc57600080fd5b60208082526025908201527f4c61207472616e73666572656e63696120646520746f6b656e732068612066616040820152646c6c61646f60d81b606082015260800190565b600060208284031215611bcf57600080fd5b5051919050565b8082018082111561096a5761096a611944565b60408101818360005b6002811015611c11578151835260209283019290910190600101611bf2565b50505092915050565b634e487b7160e01b600052603260045260246000fd5b600063ffffffff821680611c4657611c46611944565b6000190192915050565b60208082526024908201527f4c612063616e746964616420612072657469726172206e6f2065732061646d696040820152637469646160e01b606082015260800190565b60208082526024908201527f4e6f20707565646f20656e636f6e74726172206c61207261697a206465206d65604082015263726b6c6560e01b606082015260800190565b61014081016040808784378083018660005b6002811015611d0757838284379183019190830190600101611cea565b505050808560c08501375061010082018360005b6002811015611d3a578151835260209283019290910190600101611d1b565b50505095945050505050565b8181038181111561096a5761096a611944565b634e487b7160e01b600052601260045260246000fd5b600082611d7e57611d7e611d59565b500690565b600181811c90821680611d9757607f821691505b6020821081036117fe57634e487b7160e01b600052602260045260246000fd5b600063ffffffff610966818516828516611a7b565b63ffffffff818116838216019080821115611de957611de9611944565b5092915050565b600063ffffffff80841680611e0757611e07611d59565b92169190910692915050565b600063ffffffff80841680611e2a57611e2a611d59565b92169190910492915050565b600063ffffffff808316818103611e4f57611e4f611944565b6001019392505050565b63ffffffff828116828216039080821115611de957611de961194456fe30644e72e131a029b85045b68181585d2833e84879b9709143e1f593f0000001a2646970667358221220f2d81f24d60fe697ace26c7c9151168b06fd15f27873ba242c92bb1074b375ad64736f6c63430008140033405787fa12a823e0f2b7631cc41b3ba8828b3321ca811111fa75cd3aa3bb5aceb10e2d527612073b26eecdfd717e6a320cf44b4afac2b0732d9fcbe2b7fa0cf65374617274696e6720746f206275696c64206d79205a4b41544d2070726f79656374212121",
  "devdoc": {
    "kind": "dev",
    "methods": {},
    "version": 1
  },
  "userdoc": {
    "kind": "user",
    "methods": {},
    "version": 1
  },
  "storageLayout": {
    "storage": [
      {
        "astId": 1681,
        "contract": "contracts/ATM.sol:ATM",
        "label": "hasher",
        "offset": 0,
        "slot": "0",
        "type": "t_contract(Hasher)1672"
      },
      {
        "astId": 1686,
        "contract": "contracts/ATM.sol:ATM",
        "label": "filledSubtrees",
        "offset": 0,
        "slot": "1",
        "type": "t_array(t_bytes32)dyn_storage"
      },
      {
        "astId": 1689,
        "contract": "contracts/ATM.sol:ATM",
        "label": "zeros",
        "offset": 0,
        "slot": "2",
        "type": "t_array(t_bytes32)dyn_storage"
      },
      {
        "astId": 1692,
        "contract": "contracts/ATM.sol:ATM",
        "label": "currentRootIndex",
        "offset": 0,
        "slot": "3",
        "type": "t_uint32"
      },
      {
        "astId": 1695,
        "contract": "contracts/ATM.sol:ATM",
        "label": "nextIndex",
        "offset": 4,
        "slot": "3",
        "type": "t_uint32"
      },
      {
        "astId": 1702,
        "contract": "contracts/ATM.sol:ATM",
        "label": "roots",
        "offset": 0,
        "slot": "4",
        "type": "t_array(t_bytes32)3_storage"
      },
      {
        "astId": 1137,
        "contract": "contracts/ATM.sol:ATM",
        "label": "balanceTotalATM",
        "offset": 0,
        "slot": "7",
        "type": "t_uint256"
      },
      {
        "astId": 1140,
        "contract": "contracts/ATM.sol:ATM",
        "label": "zkatmToken",
        "offset": 0,
        "slot": "8",
        "type": "t_contract(ZKATM_Token)2126"
      },
      {
        "astId": 1144,
        "contract": "contracts/ATM.sol:ATM",
        "label": "balance",
        "offset": 0,
        "slot": "9",
        "type": "t_mapping(t_address,t_uint256)"
      },
      {
        "astId": 1148,
        "contract": "contracts/ATM.sol:ATM",
        "label": "nullifierHashes",
        "offset": 0,
        "slot": "10",
        "type": "t_mapping(t_bytes32,t_bool)"
      },
      {
        "astId": 1152,
        "contract": "contracts/ATM.sol:ATM",
        "label": "initialized",
        "offset": 0,
        "slot": "11",
        "type": "t_mapping(t_address,t_bool)"
      },
      {
        "astId": 1156,
        "contract": "contracts/ATM.sol:ATM",
        "label": "commitments",
        "offset": 0,
        "slot": "12",
        "type": "t_mapping(t_bytes32,t_bool)"
      },
      {
        "astId": 1159,
        "contract": "contracts/ATM.sol:ATM",
        "label": "greeting",
        "offset": 0,
        "slot": "13",
        "type": "t_string_storage"
      }
    ],
    "types": {
      "t_address": {
        "encoding": "inplace",
        "label": "address",
        "numberOfBytes": "20"
      },
      "t_array(t_bytes32)3_storage": {
        "base": "t_bytes32",
        "encoding": "inplace",
        "label": "bytes32[3]",
        "numberOfBytes": "96"
      },
      "t_array(t_bytes32)dyn_storage": {
        "base": "t_bytes32",
        "encoding": "dynamic_array",
        "label": "bytes32[]",
        "numberOfBytes": "32"
      },
      "t_bool": {
        "encoding": "inplace",
        "label": "bool",
        "numberOfBytes": "1"
      },
      "t_bytes32": {
        "encoding": "inplace",
        "label": "bytes32",
        "numberOfBytes": "32"
      },
      "t_contract(Hasher)1672": {
        "encoding": "inplace",
        "label": "contract Hasher",
        "numberOfBytes": "20"
      },
      "t_contract(ZKATM_Token)2126": {
        "encoding": "inplace",
        "label": "contract ZKATM_Token",
        "numberOfBytes": "20"
      },
      "t_mapping(t_address,t_bool)": {
        "encoding": "mapping",
        "key": "t_address",
        "label": "mapping(address => bool)",
        "numberOfBytes": "32",
        "value": "t_bool"
      },
      "t_mapping(t_address,t_uint256)": {
        "encoding": "mapping",
        "key": "t_address",
        "label": "mapping(address => uint256)",
        "numberOfBytes": "32",
        "value": "t_uint256"
      },
      "t_mapping(t_bytes32,t_bool)": {
        "encoding": "mapping",
        "key": "t_bytes32",
        "label": "mapping(bytes32 => bool)",
        "numberOfBytes": "32",
        "value": "t_bool"
      },
      "t_string_storage": {
        "encoding": "bytes",
        "label": "string",
        "numberOfBytes": "32"
      },
      "t_uint256": {
        "encoding": "inplace",
        "label": "uint256",
        "numberOfBytes": "32"
      },
      "t_uint32": {
        "encoding": "inplace",
        "label": "uint32",
        "numberOfBytes": "4"
      }
    }
  }
}