{
  "address": "0x99e92315Ca433a6a17A3073Fb7cC7bAE9e68A305",
  "abi": [
    {
      "inputs": [
        {
          "internalType": "address",
          "name": "_owner",
          "type": "address"
        }
      ],
      "stateMutability": "nonpayable",
      "type": "constructor"
    },
    {
      "anonymous": false,
      "inputs": [
        {
          "indexed": true,
          "internalType": "address",
          "name": "greetingSetter",
          "type": "address"
        },
        {
          "indexed": false,
          "internalType": "string",
          "name": "newGreeting",
          "type": "string"
        },
        {
          "indexed": false,
          "internalType": "bool",
          "name": "premium",
          "type": "bool"
        },
        {
          "indexed": false,
          "internalType": "uint256",
          "name": "value",
          "type": "uint256"
        }
      ],
      "name": "GreetingChange",
      "type": "event"
    },
    {
      "inputs": [],
      "name": "greeting",
      "outputs": [
        {
          "internalType": "string",
          "name": "",
          "type": "string"
        }
      ],
      "stateMutability": "view",
      "type": "function"
    },
    {
      "inputs": [],
      "name": "owner",
      "outputs": [
        {
          "internalType": "address",
          "name": "",
          "type": "address"
        }
      ],
      "stateMutability": "view",
      "type": "function"
    },
    {
      "inputs": [],
      "name": "premium",
      "outputs": [
        {
          "internalType": "bool",
          "name": "",
          "type": "bool"
        }
      ],
      "stateMutability": "view",
      "type": "function"
    },
    {
      "inputs": [
        {
          "internalType": "string",
          "name": "_newGreeting",
          "type": "string"
        }
      ],
      "name": "setGreeting",
      "outputs": [],
      "stateMutability": "payable",
      "type": "function"
    },
    {
      "inputs": [],
      "name": "totalCounter",
      "outputs": [
        {
          "internalType": "uint256",
          "name": "",
          "type": "uint256"
        }
      ],
      "stateMutability": "view",
      "type": "function"
    },
    {
      "inputs": [
        {
          "internalType": "address",
          "name": "",
          "type": "address"
        }
      ],
      "name": "userGreetingCounter",
      "outputs": [
        {
          "internalType": "uint256",
          "name": "",
          "type": "uint256"
        }
      ],
      "stateMutability": "view",
      "type": "function"
    },
    {
      "inputs": [],
      "name": "withdraw",
      "outputs": [],
      "stateMutability": "nonpayable",
      "type": "function"
    },
    {
      "stateMutability": "payable",
      "type": "receive"
    }
  ],
  "transactionHash": "0x7d9732c1508883f94240a11979898e58688c41b52cafa39050f136b958676f6a",
  "args": [
    "0x5Fdc37574A0FE07fc0d47E6A749242DaBB1B09eE"
  ],
  "numDeployments": 1,
  "solcInputHash": "17b66857c7e19dfd285cafbe663a82d4",
  "bytecode": "0x610100604052602560a081815290610a2d60c039600090610020908261010b565b506001805460ff19169055600060025534801561003c57600080fd5b50604051610a52380380610a5283398101604081905261005b916101ca565b6001600160a01b03166080526101fa565b634e487b7160e01b600052604160045260246000fd5b600181811c9082168061009657607f821691505b6020821081036100b657634e487b7160e01b600052602260045260246000fd5b50919050565b601f82111561010657600081815260208120601f850160051c810160208610156100e35750805b601f850160051c820191505b81811015610102578281556001016100ef565b5050505b505050565b81516001600160401b038111156101245761012461006c565b610138816101328454610082565b846100bc565b602080601f83116001811461016d57600084156101555750858301515b600019600386901b1c1916600185901b178555610102565b600085815260208120601f198616915b8281101561019c5788860151825594840194600190910190840161017d565b50858210156101ba5787850151600019600388901b60f8161c191681555b5050505050600190811b01905550565b6000602082840312156101dc57600080fd5b81516001600160a01b03811681146101f357600080fd5b9392505050565b60805161080b6102226000396000818160a9015281816101a30152610209015261080b6000f3fe6080604052600436106100745760003560e01c8063a41368621161004e578063a41368621461010c578063cea49c3c1461011f578063e0a73a931461014c578063ef690cc01461017657600080fd5b80633ccfd60b146100805780638da5cb5b1461009757806397feba9d146100e857600080fd5b3661007b57005b600080fd5b34801561008c57600080fd5b50610095610198565b005b3480156100a357600080fd5b506100cb7f000000000000000000000000000000000000000000000000000000000000000081565b6040516001600160a01b0390911681526020015b60405180910390f35b3480156100f457600080fd5b506100fe60025481565b6040519081526020016100df565b61009561011a3660046104a8565b6102c2565b34801561012b57600080fd5b506100fe61013a366004610559565b60036020526000908152604090205481565b34801561015857600080fd5b506001546101669060ff1681565b60405190151581526020016100df565b34801561018257600080fd5b5061018b610393565b6040516100df91906105cf565b336001600160a01b037f000000000000000000000000000000000000000000000000000000000000000016146102055760405162461bcd60e51b815260206004820152600d60248201526c2737ba103a34329027bbb732b960991b60448201526064015b60405180910390fd5b60007f00000000000000000000000000000000000000000000000000000000000000006001600160a01b03164760405160006040518083038185875af1925050503d8060008114610272576040519150601f19603f3d011682016040523d82523d6000602084013e610277565b606091505b50509050806102bf5760405162461bcd60e51b81526020600482015260146024820152732330b4b632b2103a379039b2b7321022ba3432b960611b60448201526064016101fc565b50565b6102e56040518060600160405280602181526020016107b5602191398233610421565b60006102f1828261066a565b50600160026000828254610305919061072a565b909155505033600090815260036020526040812080546001929061032a90849061072a565b90915550503415610346576001805460ff191681179055610351565b6001805460ff191690555b60405133907f94cbd7e04dca26a7667654f6448b2ca0a40fec602118dc5fd8c82b9cf3c645ad906103889084903480151591610751565b60405180910390a250565b600080546103a0906105e2565b80601f01602080910402602001604051908101604052809291908181526020018280546103cc906105e2565b80156104195780601f106103ee57610100808354040283529160200191610419565b820191906000526020600020905b8154815290600101906020018083116103fc57829003601f168201915b505050505081565b61046883838360405160240161043993929190610776565b60408051601f198184030181529190526020810180516001600160e01b03166395ed019560e01b17905261046d565b505050565b6102bf8160006a636f6e736f6c652e6c6f679050600080835160208501845afa505050565b634e487b7160e01b600052604160045260246000fd5b6000602082840312156104ba57600080fd5b813567ffffffffffffffff808211156104d257600080fd5b818401915084601f8301126104e657600080fd5b8135818111156104f8576104f8610492565b604051601f8201601f19908116603f0116810190838211818310171561052057610520610492565b8160405282815287602084870101111561053957600080fd5b826020860160208301376000928101602001929092525095945050505050565b60006020828403121561056b57600080fd5b81356001600160a01b038116811461058257600080fd5b9392505050565b6000815180845260005b818110156105af57602081850181015186830182015201610593565b506000602082860101526020601f19601f83011685010191505092915050565b6020815260006105826020830184610589565b600181811c908216806105f657607f821691505b60208210810361061657634e487b7160e01b600052602260045260246000fd5b50919050565b601f82111561046857600081815260208120601f850160051c810160208610156106435750805b601f850160051c820191505b818110156106625782815560010161064f565b505050505050565b815167ffffffffffffffff81111561068457610684610492565b6106988161069284546105e2565b8461061c565b602080601f8311600181146106cd57600084156106b55750858301515b600019600386901b1c1916600185901b178555610662565b600085815260208120601f198616915b828110156106fc578886015182559484019460019091019084016106dd565b508582101561071a5787850151600019600388901b60f8161c191681555b5050505050600190811b01905550565b8082018082111561074b57634e487b7160e01b600052601160045260246000fd5b92915050565b6060815260006107646060830186610589565b93151560208301525060400152919050565b6060815260006107896060830186610589565b828103602084015261079b8186610589565b91505060018060a01b038316604083015294935050505056fe53657474696e67206e6577206772656574696e6720272573272066726f6d202573a2646970667358221220791131c45742c52e3e1f32a0d41883b9af2e754512b4e28df46bcdf4dbab0a7f64736f6c634300081100335374617274696e6720746f206275696c64206d79205a4b41544d2070726f6a656374212121",
  "devdoc": {
    "author": "BuidlGuidl",
    "kind": "dev",
    "methods": {
      "setGreeting(string)": {
        "params": {
          "_newGreeting": "(string memory) - new greeting to save on the contract"
        }
      }
    },
    "version": 1
  },
  "userdoc": {
    "kind": "user",
    "methods": {
      "setGreeting(string)": {
        "notice": "Function that allows anyone to change the state variable \"greeting\" of the contract and increase the counters"
      },
      "withdraw()": {
        "notice": "Function that allows the owner to withdraw all the Ether in the contract The function can only be called by the owner of the contract as defined by the isOwner modifier"
      }
    },
    "notice": "A smart contract that allows changing a state variable of the contract and tracking the changes It also allows the owner to withdraw the Ether in the contract",
    "version": 1
  },
  "storageLayout": {
    "storage": [
      {
        "astId": 8,
        "contract": "contracts/YourContract.sol:YourContract",
        "label": "greeting",
        "offset": 0,
        "slot": "0",
        "type": "t_string_storage"
      },
      {
        "astId": 11,
        "contract": "contracts/YourContract.sol:YourContract",
        "label": "premium",
        "offset": 0,
        "slot": "1",
        "type": "t_bool"
      },
      {
        "astId": 14,
        "contract": "contracts/YourContract.sol:YourContract",
        "label": "totalCounter",
        "offset": 0,
        "slot": "2",
        "type": "t_uint256"
      },
      {
        "astId": 18,
        "contract": "contracts/YourContract.sol:YourContract",
        "label": "userGreetingCounter",
        "offset": 0,
        "slot": "3",
        "type": "t_mapping(t_address,t_uint256)"
      }
    ],
    "types": {
      "t_address": {
        "encoding": "inplace",
        "label": "address",
        "numberOfBytes": "20"
      },
      "t_bool": {
        "encoding": "inplace",
        "label": "bool",
        "numberOfBytes": "1"
      },
      "t_mapping(t_address,t_uint256)": {
        "encoding": "mapping",
        "key": "t_address",
        "label": "mapping(address => uint256)",
        "numberOfBytes": "32",
        "value": "t_uint256"
      },
      "t_string_storage": {
        "encoding": "bytes",
        "label": "string",
        "numberOfBytes": "32"
      },
      "t_uint256": {
        "encoding": "inplace",
        "label": "uint256",
        "numberOfBytes": "32"
      }
    }
  }
}